:100000000C943E030C94C2160C9485030C94850347
:100010000C9485030C9485030C9485030C94850340
:100020000C9485030C9485030C94AC290C947E2AC3
:100030000C9456240C9485030C9485030C9485032E
:100040000C9485030C9485030C9485030C94850310
:100050000C9485030C94AF240C9485030C948503B5
:100060000C9485030C9485030C9485030C948503F0
:100070000C9485030C9485030C9485030C948503E0
:100080000C9485030C9485030C9485030C948503D0
:100090000C9485030C9485030C9485030C948503C0
:1000A0000C9485030C9485030C948503F612F912C5
:1000B000FE1205130A130F13141319131E1323131F
:1000C00028132D132F133213351338133B133E13FC
:1000D00040134513331A331A651A651AB21AD01A27
:1000E000F11BF11BDB1A701B811B811BE11BF11B38
:1000F000F11BEA1B911C911CA31CA31C9A1CA31CA2
:10010000A31CA31C911C911C9F1CA31CA31C9F1C23
:10011000EB2A122B0A2C122B0A2C5E2B812B0A2C79
:10012000D82BE72B2E001E001F00200021002200EC
:100130002B0014001A00080015001700E00004004E
:100140001600070009000A00E1001D001B00060060
:10015000190005000000E000E7002A00E200290085
:100160002D00270026002500240023003100130065
:1001700012000C0018001C00340033000F000E00A9
:100180000D000B00E50038003700360010001100AC
:1001900000002800125003512C0001513A003B008E
:1001A0003C003D003E003F00010001000100BC009A
:1001B000BB00010001000100AE00AC00AB0001007B
:1001C00001003500350250004F0001000000010021
:1001D00001004C00010001004500440043004200C2
:1001E0004100400001000100010001000100010088
:1001F000010030022F02AA00A90001000100300016
:100200002F00510052000100000001000100010018
:1002100001000100000000000000000000000000DC
:1002200000000000000000000000000000000000CE
:1002300000000000000000000000000000000000BE
:1002400000000000000000000000000000000000AE
:10025000000000000000000000000000000000009E
:10026000000000000000000000000000000000008E
:10027000000000000000000000000000000000007E
:100280000000000010500000000000000000CE5CE4
:10029000CF5CD05CD15CD25C00000000C55CC45C6B
:1002A000C35C0000000000000000CD5CCC5C0000DE
:1002B000E10000000000CB5CCA5C00000000000010
:1002C000000000000000000000000000D65CD55CCB
:1002D000D45CD35C000000000000000000000000BF
:1002E000000000000000C75CC65C0000E5000000E4
:1002F0000000C95CC85C00000000000000000100B4
:10030000000000001E0F0500047F3F1F64321464CC
:100310003214783C1E1E140A052223252628292A79
:100320002C2D2F3032333536383A3B3D3E40424358
:100330004547494A4C4E5051535557595A5C5E6097
:1003400062646668696B6D6F71737577797B7D7FA9
:1003500081838587898A8C8E90929496989A9C9EA8
:100360009FA1A3A5A7A8AAACAEAFB1B3B4B6B8B9C4
:10037000BBBCBEBFC1C2C3C5C6C7C9CACBCCCDCE2C
:10038000D0D1D2D2D3D4D5D6D7D7D8D9D9DADADB0F
:10039000DBDBDCDCDCDCDCDDDDDDDDDCDCDCDCDC9B
:1003A000DBDBDBDADAD9D9D8D7D7D6D5D4D3D2D2DA
:1003B000D1D0CECDCCCBCAC9C7C6C5C3C2C1BFBEC2
:1003C000BCBBB9B8B6B4B3B1AFAEACAAA8A7A5A32D
:1003D000A19F9E9C9A98969492908E8C8A898785EC
:1003E00083817F7D7B79777573716F6D6B696866CB
:1003F0006462605E5C5A5957555351504E4C4A499D
:1004000047454342403E3D3B3A3836353332302F44
:100410002D2C2A292826252322FFAA7F55400001BA
:1004200001010101010101010202020202020202B4
:100430000203030303030303030404040404040486
:10044000050505050506060606060707070707084A
:10045000080808090909090A0A0A0B0B0B0C0C0CFD
:100460000D0D0D0E0E0E0F0F0F1010111111121297
:1004700013131414151516161717181819191A1A14
:100480001B1B1C1D1D1E1E1F202021222223242475
:10049000252626272829292A2B2C2D2D2E2F3031B1
:1004A0003232333435363738393A3B3C3D3E3F40C3
:1004B0004142434445464748494A4C4D4E4F5051AE
:1004C0005354555658595A5B5D5E5F616264656668
:1004D00068696B6C6D6F7072737577787A7B7D7EEF
:1004E0008082838587888A8C8E8F91939596989A3F
:1004F0009C9EA0A2A3A5A7A9ABADAFB1B3B5B7BA57
:10050000BCBEC0C2C4C6C9CBCDCFD1D4D6D8DBDD2A
:10051000DFE2E4E7E9EBEEF0F3F5F8FAFDFF2A039A
:100520005400680065002000420061007300740000
:1005300061007200640020004B00650079006200D9
:100540006F0061007200640000002403420061003B
:100550007300740061007200640020004B006500AD
:10056000790062006F006100720064007300000097
:100570000403090409023B00020100A0FA09040077
:1005800000010301010009211101000122400007BF
:1005900005810308000A09040100010300000009A5
:1005A0002111010001227B000705820320000A12AD
:1005B00001100100000008F8A8281801000102003D
:1005C0000105010902A10185020901A1000509191E
:1005D0000129081500250195087501810205010909
:1005E0003009311581257F95027508810609381576
:1005F00081257F950175088106050C0A3802158151
:10060000257F950175088106C0C005010980A101FB
:10061000850319012AB700150126B7009501751049
:100620008100C0050C0901A101850419012AA0025D
:10063000150126A002950175108100C0050109066B
:10064000A101050719E029E71500250195087501A5
:1006500081029501750881010507190029FF150020
:1006600026FF0095067508810005081901290595E2
:100670000575019102950175039101C011241FBEFA
:10068000CFEFDAE0DEBFCDBF04B603FE27C0809116
:10069000150490911604A0911704B09118048730A6
:1006A000904BA740B04BD1F4109215041092160451
:1006B000109217041092180414BE84B7877F84BF69
:1006C0000FB6F894A89580916000886180936000CF
:1006D000109260000FBEE0E0F8E3099511E0A0E0A1
:1006E000B1E0E6E5FBE502C005900D92AA3DB10739
:1006F000D9F724E0AAEDB1E001C01D92A531B207FF
:10070000E1F70E94E4260C94A92D0C94000081E0EE
:10071000089581E008950C94890308950C948D0345
:100720001F93CF93DF9300D000D01F92CDB7DEB7D9
:1007300049835A836B833091EF0289819A81311109
:1007400014C0662359F0222349F00E94CC21182FAF
:10075000682F89819A810E94732103C00E949F2182
:10076000182F69817A81812F04C00E94CC21698170
:100770007A810F900F900F900F900F90DF91CF9193
:100780001F910C944A04FC01262F40815181628103
:10079000738184810C949003CF93DF93EC0160E02C
:1007A0000E94C303BE01DF91CF910C948E030E947F
:1007B0004A250E940623811102C00E94AD230C9499
:1007C0006A060C94660608950E947F1C0E94E3034B
:1007D0002FEF84E39CE0215080409040E1F700C07F
:1007E00000000C941F250F931F93CF93DF93EC0110
:1007F00061E00E94C3038C01BE010E948B03882329
:1008000079F1BE01C8010E94ED13882349F1BE01B0
:10081000C8010E943F14882319F1BE01C8010E943B
:100820006A158823E9F0BE01C8010E94E0128823FE
:10083000B9F08A81882369F001158CE5180731F039
:100840000F3D1C4531F40E94AD230AC00E94E40311
:1008500007C0CE01DF91CF911F910F910C948703B8
:1008600080E0DF91CF911F910F91089508950C942E
:10087000360481E008950C943904CF93C82F0E9468
:1008800037048C2F0E943B04CF91089580E090E0C4
:10089000089508952CE3829FC0011124FC0126E0F5
:1008A000729FE00DF11D1124E60FF11DEE0FFF1FE9
:1008B000EC5DFE4F859194910895880F991FFC017E
:1008C000EC5FFC4F859194910895CF93DF930E9444
:1008D0004A040E947D05EC018115904508F041C055
:1008E000C11580E4D80708F0D1C0C83ED10510F585
:1008F000C03ED10508F0FDC0C83AD10578F4C53A2C
:10090000D10508F0A2C0C130D10509F4F2C008F445
:10091000EEC0C430D10508F0ECC0E9C0CF3BD10532
:1009200008F49BC0C03CD10508F4E1C0CE01805C56
:1009300091099EC0C11590E2D90758F4C11521E074
:10094000D20708F0D6C0CD3ED10508F4D0C0D0659E
:10095000D0C0C11580E3D80708F08EC0CE019F70CB
:1009600087C0C11595E5D90708F043C0C11524E536
:10097000D20708F0A2C0C11582E5D80708F5C11555
:1009800091E5D90708F085C0CE0174E0969587956A
:100990007A95E1F783709C2F937021E030E002C0DC
:1009A000220F331F9A95E2F73C68382BCF70C6951B
:1009B000C69580E2C89FE0011124C22BD32B99C0B9
:1009C0009E01237033278C2F86958695C115D345BC
:1009D00008F064C0C1E0D0E002C0CC0FDD1F2A9552
:1009E000E2F720E2829FC0011124C82BD92BDC68DA
:1009F00080C0C11529E5D207A0F4C11588E5D80744
:100A000008F060C0C11596E5D90708F070C08C2FBA
:100A10000E9411068F71C82FD0E0DC2FCC27D06246
:100A200068C0C1152AE5D20708F451C0CE0190561E
:100A30008115904208F05BC08D2F8F710E941106C6
:100A4000DD27D0628F71D82B54C0C55AD0E0C5596C
:100A5000DE4FC881D0E0D0644CC0C85AD0E0CC0F83
:100A6000DD1FC35CDE4F0990D881C02DD46441C026
:100A70000E945D04EC013DC0CE019927D3FF03C065
:100A8000EC01D86C36C0EC01D06C33C0DF70D06A9A
:100A900030C0DC2FCC27C16FD06A2BC0C1E0D0E0C2
:100AA00002C0CC0FDD1F2A95E2F720E2829FC00131
:100AB0001124C82BD92BDA681CC0DC2FCC27C46FBB
:100AC000D06A17C0DC2FCC27C06FD06A12C08C2F21
:100AD0008F700E94110694E0D695C7959A95E1F71C
:100AE000CF70D0E0DC2FCC27D069C82B02C0C0E08B
:100AF000D0E0CE01DF91CF9108958238910569F160
:100B0000B0F48133910509F46DC048F48932910540
:100B100009F463C08A32910509F469C008958533E8
:100B2000910509F455C089339105B9F00895833EC4
:100B3000910569F138F4803E9105B1F0823E91054E
:100B400009F10895863E9105A9F1873E9105B9F115
:100B5000843E910509F064C023C02091060420FD65
:100B60004FC021FD4DC008958091060480FD44C012
:100B70008091070480FF44C08091060484FD42C038
:100B800083EE4DC08091060482FF38C0F5CF80917E
:100B9000060482FD33C08091070480FD31C0ECCF94
:100BA0008091070481FF32C08091060484FD2AC031
:100BB00087EE35C08091060483FF26C0F5CF809173
:100BC000060483FD21C08091070481FD1FC0ECCF86
:100BD0008091060485FD1CC01DC08091060485FD22
:100BE00019C016C08091060486FD16C017C08091FA
:100BF000060486FD13C010C089E311C082EE0FC049
:100C000080EE0DC080E00BC086EE09C084EE07C008
:100C100089E205C085E303C08AE201C081E390E078
:100C200008959091060492FF0DC0282F2871283056
:100C300019F4877F846006C0282F2471243011F4B2
:100C40008B7F886093FF0DC0282F2871283119F4FD
:100C5000877E846106C0282F2471243111F48B7E95
:100C600088612091070420FF0DC0382F387138307B
:100C700019F4877F816006C0382F3171313011F44B
:100C80008E7F886021FF0DC0282F2871283119F42C
:100C9000877E816106C0282F2171213111F48E7E5B
:100CA000886194FD877E0895E82FF0E0E558FC4FB9
:100CB00080810895089580EA8A95F1F7089500C02B
:100CC00008950C945B0608950C9463060C946406D6
:100CD0000C9463060C946806F894E82FE295EF7084
:100CE000F0E031A1282F2F7081E090E001C0880F43
:100CF0002A95EAF7982F9095932391A392A1892B97
:100D000082A37894089508950F931F93CF93DF9350
:100D10000E941C088091040180910401811102C08D
:100D200095E001C090E09093860385E0891B809355
:100D30008503CEE6D1E004E711E089910E946C06BC
:100D40000C171D07D1F787E90E946C0685E30E9406
:100D50006C0687EF0E946C0686EF0E946C0686E3A5
:100D60000E946C06E1E7F3E0ABE7B3E011921D925D
:100D700083E0EB37F807D1F785E00E94C3070E94B4
:100D8000D703DF91CF911F910F910C9430080F93EF
:100D90001F93CF93DF9300D000D01F92CDB7DEB763
:100DA0000E94FA0760918603882309F442C08E01ED
:100DB0000F5F1F4F85E0F80111928A95E9F7862FA2
:100DC00090E0B80185589C4F0E94C415811116C04F
:100DD0008091DC018F5F8093DC01863030F1E091FF
:100DE0008503F0E0E558FC4FD801CE01069611923C
:100DF0001D92A817B907D9F711E018C01092DC01AD
:100E0000A0918503B0E0A558BC4FF8019E012A5F70
:100E10003F4F10E081919C91981711F08C9311E055
:100E20001196E217F307B1F701C010E00E94E10349
:100E30000DC070E065587C4F8091850390E0855827
:100E40009C4F0E94F2150E94830610E0812F0F90A4
:100E50000F900F900F900F90DF91CF911F910F91F6
:100E600008958F929F92AF92BF92CF92DF92EF92AE
:100E7000FF920F931F93CF93DF930EE611E0C0E034
:100E8000D0E0912CEE24E394F12C96E7C92E93E068
:100E9000D92E5801D8018C91F894E82FE295EF7083
:100EA000F0E021A18F70A70102C0440F551F8A9561
:100EB000E2F7CA01922F982B91A392A180958923E2
:100EC00082A378940E945F06C7010C2E01C0880F90
:100ED0000A94EAF7582F282F2095E1E7F3E064E71A
:100EE00071E0812C4081DB013D91BD01832F829512
:100EF0008F7090E0DC0190968C9190E03F7002C082
:100F0000959587953A95E2F780FD03C0842F852B50
:100F100002C0842F8223481719F080838824839489
:100F20003196CE16DF06F1F60F5F1F4FF501808177
:100F30000E946C06C530D10511F00E946106982808
:100F40002196C630D10509F0A4CF6091860370E0E8
:100F500065587C4F292D45E081E793E00E94C40746
:100F60000E94C706992011F081E090E0DF91CF91B7
:100F70001F910F91FF90EF90DF90CF90BF90AF90B7
:100F80009F908F9008950895FF920F931F93CF9392
:100F9000DF938C01F62ED72FC42F222349F081E056
:100FA0008093DF010E9488249093DE018093DD010D
:100FB0008091DF018823C1F08091DD019091DE01F5
:100FC0000E94A024069780F0EF2DFD2FD8014C2F12
:100FD00050E0CD01801B910B841795071CF48D9177
:100FE0008193F7CF1092DF01DF91CF911F910F9185
:100FF000FF9008958091E001811112C08091D80086
:1010000080618093D8008AE18A95F1F700C08091D1
:10101000D90080FD02C082E001C081E08093E00140
:1010200081E09091E001913009F080E008950E9404
:10103000FA0791E0892708950E9417088093040118
:101040008091040163E1882311F080E001C083E115
:101050000E945F0B0E94FA0781110C949B15089562
:101060000E94FA07811102C00C94A1150895809185
:10107000E70180FF0BC060910A0185E0689FB00125
:10108000112475956795759567952BC081FF09C0EB
:1010900060910A0185E0689FB001112475956795FC
:1010A00020C082FF07C060910A0185E0689FB001FF
:1010B000112417C09091E6019923D1F060910901A4
:1010C000961788F720910A0185E0289F9001112446
:1010D000929FA001939F500D112470E0CA010E94BD
:1010E0006C2C6038710540F46115710519F406C067
:1010F00065E070E0862F08958FE7089581E00895F8
:101100008091E70180FF08C06091060170E075954D
:1011100067957595679521C081FF06C060910601AE
:1011200070E07595679519C082FF04C06091060153
:1011300070E010C09091E501992399F0609105014C
:101140009617A0F780910601899FC001112470E0D5
:101150000E946C2C6038710540F46115710519F41A
:1011600006C061E070E0862F08958FE7089581E062
:1011700008958D3E21F40E943708819504C08E3E6B
:1011800029F40E9437088093EB0108958F3E21F4E3
:101190000E943708819504C0803F29F40E943708D7
:1011A0008093EA010895893F19F40E94800805C0E0
:1011B0008A3F31F40E94800881958093EC01089564
:1011C0008B3F21F40E948008819504C08C3F29F454
:1011D0000E9480088093ED0108959FE0980F983059
:1011E00078F421E030E0A90102C0440F551F9A9520
:1011F000E2F7CA019091E901892B8093E9010895F2
:101200008D3F21F48091E70181600BC08E3F21F476
:101210008091E701826005C08F3F29F48091E7014A
:1012200084608093E70108958D3E39F49091EB013D
:1012300097FF35C01092EB0159C08E3E29F4909172
:10124000EB011916BCF32BC09091EA018F3E29F4F3
:1012500097FF25C01092EA0149C0803F19F4191682
:10126000CCF31DC09091EC01893F29F41916BCF410
:101270001092EC013BC08A3F19F497FF10C0F8CFE1
:101280008B3F39F49091ED0197FF09C01092ED0169
:101290002DC08C3F21F49091ED011916BCF39FE015
:1012A000980F983080F421E030E0A90102C0440F8B
:1012B000551F9A95E2F7CA0180959091E90189231B
:1012C0008093E90113C08D3F21F48091E7018E7F67
:1012D0000BC08E3F21F48091E7018D7F05C08F3FC9
:1012E00029F48091E7018B7F8093E7018091EA01E7
:1012F000811106C08091EB01811102C01092E601BC
:101300008091EC01811106C08091ED01811102C034
:101310001092E50108950E9488242091EA0121118C
:1013200004C02091EB01222321F09093E4018093EB
:10133000E3012091EC01211104C02091ED01222351
:1013400021F09093E2018093E10188EE91E00C940A
:10135000F117EF92FF920F931F93CF93DF9300D07B
:1013600000D000D0CDB7DEB786E0E8EEF1E0DE01D8
:10137000119601900D928A95E1F7E090EA01F090C4
:10138000EB010091EC011091ED011092EA01109235
:10139000EB011092EC011092ED01E11003C0FF206F
:1013A00009F45DC08091E3019091E4010E94A024C2
:1013B000AC019091E601992339F020910B0130E0C6
:1013C0002417350758F04BC020910C018AE0289F64
:1013D000900111242417350718F041C09F3F19F0E0
:1013E0009F5F9093E601EE2061F00E9437081E1483
:1013F00014F09FEF01C091E0989F902D11249093DD
:10140000EA01FF2061F00E9437081F1414F09FEFDB
:1014100001C091E0989F902D11249093EB013091A1
:10142000EA013323E1F02091EB012223C1F045EBE7
:101430003403C0011124992319F09093EA0103C0E9
:1014400081E08093EA0135EB2303C0011124992345
:1014500019F09093EB0103C081E08093EB0101113F
:1014600003C0112309F45DC08091E1019091E20174
:101470000E94A024AC019091E501992339F02091BC
:10148000070130E02417350758F04BC020910801C0
:101490008AE0289F900111242417350718F041C0D5
:1014A0009F3F19F09F5F9093E501002361F00E9438
:1014B0008008101614F09FEF01C091E0989F902DC6
:1014C00011249093EC01112361F00E948008111601
:1014D00014F09FEF01C091E0989F902D11249093FC
:1014E000ED013091EC013323E1F02091ED01222355
:1014F000C1F045EB3403C0011124992319F09093F6
:10150000EC0103C081E08093EC0135EB2303C001C3
:101510001124992319F09093ED0103C081E0809389
:10152000ED018091EA0181110BC08091EB018111E5
:1015300007C08091EC01811103C08091ED01811100
:101540000E948B09EB82FC820D831E8386E0FE01E4
:101550003196A8EEB1E001900D928A95E1F72696BA
:101560000FB6F894DEBF0FBECDBFDF91CF911F91B4
:101570000F91FF90EF900895E8EEF1E086E0DF0133
:101580001D928A95E9F71092E6011092E5011092FA
:10159000E7010895EF92FF920F931F93CF93DF938C
:1015A0008B01682F11110AC0442329F0E82FF0E0C5
:1015B000E25EFB4F6491762F862F75C0212F30E0BD
:1015C000E82FF0E0442321F0E25EFB4FE491F0E0ED
:1015D00046E0049FC0011124CFEFD0E0BE010E947D
:1015E000582C4BEA4603C001479F900D1124800FF1
:1015F000911D800F911D982F990F890FAE01421BED
:10160000530B4E9FD0014F9FB00D5E9FB00D112424
:101610009B2F189FA0011124452F55278E01041BD5
:10162000150B0E9FA0010F9F500D1E9F500D1124F2
:101630007E01E81AF108E29E8001E39E100DF29E01
:10164000100D1124212F3327C21BD30BCE9F9001E5
:10165000CF9F300DDE9F300D112462307105A9F04F
:1016600048F46115710569F061307105C9F48B2F7B
:10167000752F0DC06430710581F058F0663071052A
:1016800079F47E2F8B2F932F0DC0832F7B2F9E2FCE
:1016900009C08E2F7B2F952F05C08E2F732F02C070
:1016A0007E2F852F692FDF91CF911F910F91FF9092
:1016B000EF90089541E00E94CA0A08950895E0E17C
:1016C000F1E08083618308950E945A0B0895CF93BF
:1016D000DF93762FE901682F842F0E94640B7983B2
:1016E00068838A83DF91CF91089580918703282FA3
:1016F000269530E02115310519F48170826005C00E
:101700002B32310524F0817084658093870308951E
:1017100088E090E00C944A2DCF92DF92EF92FF92F6
:101720006B017C010E94750BB701A60188E090E077
:10173000FF90EF90DF90CF900C94682DE7E8F3E0F6
:1017400083E0808311828FEF828383831482A9EBED
:10175000B2E012968C911297836012968C936081FE
:101760007181828193810C948C0B8091870380FF1F
:1017700002C08695089580E0089590918B03933080
:1017800018F49F5F90938B03882351F06091870337
:10179000709188038091890390918A030C948C0B3B
:1017A000089581E00C94BD0B90918B03992319F05F
:1017B000915090938B03882351F06091870370912F
:1017C00088038091890390918A030C948C0B08956F
:1017D00081E00C94D40B70E00C944F1360911101D4
:1017E0008091870380FF0AC08091100123E0829FCF
:1017F000C001112484579C4F0C94EB0B8091120173
:1018000090911301891780F7E82FF0E09F01220FD4
:10181000331FE20FF31FE457FC4F11821082128234
:101820008F5FF0CF9091870390FF16C090911201C7
:1018300020911301921770F4E92FF0E0DF01AA0F55
:10184000BB1FEA0FFB1FE457FC4F81836083428379
:101850009F5FF0CF0C94EE0B0895CF93DF9300D0F1
:101860001F92CDB7DEB79091870390FF0AC09E010B
:101870002F5F3F4F0E94670B4B8169818A810E94D5
:10188000120C0F900F900F90DF91CF910895CF938E
:10189000DF93EC01EC81F0E0E75EFC4F4491E7E878
:1018A000F3E0628181810E942D0C8C818F5F8C839B
:1018B000DF91CF910895CF93DF93EC01E7E8F3E058
:1018C000438162818C810E942D0C8C818F5F8C837F
:1018D000DF91CF9108950F931F93CF93DF9300D0A3
:1018E0001F92CDB7DEB78C018091EE0181110AC045
:1018F0009E012F5F3F4F4FEF6FEF0E94670B8A8172
:101900008093EE01F8018481813051F028F082301B
:1019100061F44091EE010AC08091EE0140E007C001
:101920006091EE0140E080E003C040E080E060E0D4
:101930000E94120CF801848190E0019663E070E04F
:101940000E946C2C84830F900F900F90DF91CF91A9
:101950001F910F910895AF92BF92CF92DF92EF92B5
:10196000FF920F931F93CF93DF9300D01F92CDB7B9
:10197000DEB7182FF62E042FE22E9091870390FFEA
:101980007EC0E92FE695AE2FB0E0A258BE4F8C91F5
:101990008093B9029E7F923061F49E012F5F3F4F8A
:1019A000812F0E94670B4B8169818A810E94120CF2
:1019B00043C0823019F400918A033EC0863019F486
:1019C0001091880339C08930D9F38931A9F5E951DB
:1019D0008E2F8170D82EE695F0E0E75EFB4FA59044
:1019E000B490C12CBB2460911401C61618F52C2D9F
:1019F00030E0A29EC001A39E900DB29E900D1124D6
:101A000070E00E94582C812FD11002C0860F01C0B7
:101A1000861B90911201290F311DA901440F551FFA
:101A2000240F351F24573C4F402F6F2D0E94670B0A
:101A3000C394D9CF0E94EE0B80918803181308C07D
:101A400080918903F81204C080918A03081729F055
:101A50008091BB0282608093BB0210938803F09256
:101A6000890300938A03EE2051F0609187037091FF
:101A700088038091890390918A030E948C0B0F90B8
:101A80000F900F90DF91CF911F910F91FF90EF90EA
:101A9000DF90CF90BF90AF900895E7E8F3E0918199
:101AA000282F4381628188E0890F0C94AB0C81E080
:101AB0000C944D0DE7E8F3E09181282F438162817A
:101AC00088EF890F0C94AB0C81E00C945A0DE7E879
:101AD000F3E0628121E1620F08F46FEF282F438168
:101AE00081810C94AB0C81E00C94670DE7E8F3E086
:101AF000628121E1621B08F460E0282F438181812B
:101B00000C94AB0C81E00C94760DE7E8F3E0438194
:101B100021E1420F08F44FEF282F628181810C945C
:101B2000AB0C81E00C94850DE7E8F3E0438121E103
:101B3000421B08F440E0282F628181810C94AB0C99
:101B400081E00C94940D20E00C94AB0CFF920F9369
:101B50001F93CF93DF93EC01F12C0FEF10E0609116
:101B60001401F616F0F4809112012F2D30E0280FA9
:101B7000311DC901880F991F280F391F24573C4F69
:101B800070E0C8010E946C2C962F8C8140918A03D2
:101B900060918903F99E800D11240E94670BF394D4
:101BA000DECF0E94EE0B9A818C8190FF02C08F5F86
:101BB00001C081508C83DF91CF911F910F91FF90D5
:101BC00008958F929F92AF92BF92CF92DF92EF9241
:101BD000FF920F931F93CF93DF93EC018A8180FFD5
:101BE00003C0BB24BA9402C0BB24B3948C8181117E
:101BF0000DC081E0B81206C080911401815080931D
:101C0000F00102C01092F00181E08C83A12C46E229
:101C1000942E80911401A81608F044C080911201FE
:101C2000CA2CD12C8601080F111DC801880F991FDD
:101C3000080F191F04571C4FF801118210821282DD
:101C400034E0E32EF12C812C8091F001880D873255
:101C50002CF0692D0E944A2C892F05C087FF03C0F4
:101C600090911401890F082E000C990BC816D90603
:101C700091F480918A038E9DA0018F9D500D1124B7
:101C800055954795559547959801609189038091A1
:101C900088030E94670B8B0CF1E0EF1AF108A1F6A4
:101CA000A394B7CF0E94EE0B8091F00191E0B9129E
:101CB0000EC0811107C08091140181508093F00102
:101CC0001C820FC081508093F001BC820AC090E05A
:101CD00001966091140170E00E946C2C8093F001D9
:101CE0008C83DF91CF911F910F91FF90EF90DF9048
:101CF000CF90BF90AF909F908F9008951F93CF93F8
:101D0000DF93EC018C81811109C081E08C831092FA
:101D1000EF0192E090930F0180930E0180911201E8
:101D200090911301891770F4E82FF0E09F01220FC2
:101D3000331FE20FF31FE457FC4F1182108212820F
:101D40008F5FF0CF10E0609114011617C0F5E12FFE
:101D5000F0E070E0CF010E946C2C20911201820F04
:101D60002091EF01022E000C330B90E0E217F307F5
:101D7000CCF020910F01022E000C330B2E173F07E1
:101D80008CF09C01220F331F820F931F9C0124575C
:101D90003C4F40918A0360918903809188030E949F
:101DA000670B0BC0FC01EE0FFF1F8E0F9F1FFC0186
:101DB000E457FC4F1182108212821F5FC4CF0E9431
:101DC000EE0B80910E012091EF01280F2093EF017F
:101DD00090910F01980F90930F0119165CF4022E49
:101DE000000C330B4091140150E04150510924176D
:101DF000350734F0819580930E01813009F41C82FF
:101E0000DF91CF911F9108958F929F92AF92BF92D1
:101E1000CF92DF92EF92FF920F931F93CF93DF93B6
:101E20008C01FC014481C42FD0E09E01DE010E94A0
:101E3000B02C9B01AC010E94C62C6B017C01E0E23E
:101E4000F0E0EC1BFD0BA5E5B0E09B01AC010E94AE
:101E5000C62C4B015C019F01DF010E94A82C9B0155
:101E6000AC010E94D12C9B01AC012C0D3D1D4E1DDF
:101E70005F1DC501B4010E94802CC22FD22F2A32CF
:101E800028F4F3E02F9F900111240DC025E530E0E8
:101E90002C1B3109C901880F991F280F391F37FFE3
:101EA00002C02F5F3F4F35952795C22FC095F12C6B
:101EB00085E5E82EED1A80911401F816C8F4F1FCBE
:101EC00002C08E2D01C08D2F909112012F2D30E078
:101ED000290F311DA901440F551F240F351F245709
:101EE0003C4F4C2F609189030E94670BF394E3CF22
:101EF0000E94EE0BF8018481811102C091E003C0C1
:101F0000803219F49FEF90930D0190910D01890F8C
:101F1000F8018483DF91CF911F910F91FF90EF9093
:101F2000DF90CF90BF90AF909F908F9008950F93C8
:101F30001F93CF93DF93EC0100E010E08091140138
:101F4000282F30E00217130724F590911201980111
:101F5000290F311DA901440F551F240F351F245788
:101F60003C4F869590E04C81081719071CF44423D8
:101F700031F002C0411103C040918A0301C040E02A
:101F800060918903809188030E94670B0F5F1F4F48
:101F9000D5CF0E94EE0B8C8190E00196817099273D
:101FA0008C83DF91CF911F910F9108957F928F9233
:101FB0009F92AF92BF92CF92DF92EF92FF920F93D8
:101FC0001F93CF93DF93FC018280748081E0848330
:101FD000E9E1F3E09490E8E9F3E0E491A12CF5E085
:101FE000BF2ECC24CA94D12CE9190E2F10E0809179
:101FF0001401A81608F0A2C0EA2CF12C22E0281542
:1020000068F0BE9CF001BF9CF00D1124EC50FE4F17
:1020100080918803808380918903818371100AC035
:10202000BE9CF001BF9CF00D1124EC50FE4F1382BA
:1020300012826AC0BE9CE001BF9CD00D1124CC501E
:10204000DE4F8B818823F9F081508B832FEF829FA5
:10205000C00111246C8170E00E94582CFB01FF2705
:10206000E75EFC4F8491E82FE9192FEFE29FC00152
:102070001124B8010E94582C80918A03689FB001F6
:1020800011247A8341C00E94252D20918A03269530
:10209000215830E0A901440F551F322F2227240F69
:1020A000351F232F33278217930774F582E0881595
:1020B00088F40E94252DB6010E946C2C88830E9412
:1020C000252D209189032695622F70E00E946C2CAB
:1020D000280F2983BE9CF001BF9CF00D1124EC5009
:1020E000FE4F128280918A03843120F0893C18F0DF
:1020F00088EC01C084E1BE9CF001BF9CF00D11246E
:10210000EC50FE4F84838383809112019701280F46
:10211000311DC901880F991F280F391F24573C4FC3
:10212000BE9CF001BF9CF00D1124EC50FE4F42818B
:10213000618180810E94670BA39459CFDF91CF9179
:102140001F910F91FF90EF90DF90CF90BF90AF90D5
:102150009F908F907F900C94EE0B8091BB0208951E
:102160001092BB02089525E0E7E8F3E0DC0101905E
:102170000D922A95E1F72091B9023091BA0240916F
:10218000BB02FC0125833683478308956091870352
:10219000669570E04BE050E085E191E00E94352DBE
:1021A000892B19F481E08093BA020E94162590933E
:1021B000B3028093B2028091BB0284608093BB0221
:1021C0000895E9EBF2E011828281846082830895B0
:1021D0009091870390FF3AC09170811102C0926084
:1021E00006C08B3210F0946502C0880F982B909334
:1021F00087038091BB0281608093BB02662351F00C
:1022000060918703709188038091890390918A037C
:102210000E948C0B60918703669570E04BE050E064
:1022200085E191E00E94352D892B19F00E94E11083
:1022300002C00E94C61081E08093B50240918A03DB
:1022400060918903809188030C94A30D0895682FF1
:1022500090918703969581E0890F8B3208F081E099
:102260000C94E81081E00C942711682F909187035B
:1022700096958FEF890F09F48AE20C94E81081E0BB
:102280000C94351161E00C94E810E7E8F3E08081EC
:102290008160808386950C94421160E00C94E81074
:1022A000E7E8F3E080818E7F8083608171818281A5
:1022B00093810E948C0B0E94E110E9EBF2E0828195
:1022C000816082832FEF80E792E021508040904030
:1022D000E1F700C000000C94EE0B8091870380FDB5
:1022E0000C9450110C944511E7E8F3E080818E7F47
:1022F00080830E94E110E9EBF2E0828181608283B9
:102300002FEF80E792E0215080409040E1F700C03D
:1023100000000C94EE0B1F93CF93DF93EC01162F6C
:102320008F8180FF0FC0888180FF0AC08091870362
:10233000816080938703888186950E94E81002C09F
:102340000E9474118F8181FF06C0212F4B816A8109
:1023500089810E94AB0C8F8182FF08C08E81882307
:1023600019F00E94C61002C00E94E1108F8183FF05
:1023700003C081E08093B502DF91CF911F91089552
:102380008091B802811133C00E940623811104C0DC
:102390000E94AD230E949E0B0E94880B60938703CE
:1023A000709388038093890390938A038091BB0282
:1023B00083608093BB026E7F61F40E949E0B0E943B
:1023C000880B6093870370938803809389039093AD
:1023D0008A030E94750B0E94E1108091870380FFA1
:1023E00003C086950E944D1181E08093B802089544
:1023F000EF92FF920F931F93CF93DF938091BA02D6
:10240000882309F4BBC08091B902E0918703E69567
:10241000E81BE093B402823049F4F0E0EB5EFC4F3D
:10242000E491CE2FD0E007E41CE059C0863049F497
:10243000F0E0EE5EFC4FE491CE2FD0E00BE51CE027
:102440004EC0893051F4E695F0E0E15FFC4FE49135
:10245000CE2FD0E006EA1DE042C08F3051F4E69561
:10246000F0E0E45FFC4FE491CE2FD0E001EE1DE000
:1024700036C0853149F4F0E0E75FFC4FE491CE2FA0
:10248000D0E00EE71EE02BC08831D9F0833239F45A
:10249000E7E0F3E0C591D4910BE61CE020C0843264
:1024A000A9F08532C1F48E2F63E00E943E2CE92F03
:1024B000F0E0EC5FFC4FE491CE2FD0E006ED1FE0A2
:1024C0000EC0C8E2D0E004E01FE009C0C4EFD1E0D4
:1024D00007E91FE004C0C0EDD7E00EE51BE08091E6
:1024E000B502882361F01092B5020E9416259093E0
:1024F000B3028093B2021092B7021092B6020E9409
:102500001625E091B202F091B3029C012E1B3F0B05
:102510002F3F3F4798F52091F3012223B1F010920D
:10252000F3012091F1013091F201821B930B8F3F57
:102530009F4758F4205D3A483093F2012093F1010F
:102540008091BB0288608093BB02E090B602F0905D
:10255000B702EC0FFD1FF093B302E093B20282EBDF
:1025600092E0F80109958091B6029091B702892B0B
:1025700029F4EF2819F081E08093F301DF91CF91E6
:102580001F910F91FF90EF900895882311F0FA01A9
:1025900001C0FB010994CF93DF93C82FD62F0E946F
:1025A000B50B8C1740F00E94B50B8D1720F4DF910E
:1025B000CF910C9432118C2FDF91CF910C9442115A
:1025C0001F93CF93DF93FB011281111163C0EC01C4
:1025D0000E944D228272FE01E35CFC45E431F1056C
:1025E00008F057C0EA5AFF4F0C94A22C0E946D11BC
:1025F00051C04FE351E162E371E104C042E351E1B4
:102600006FE371E10E94C51245C044E65DE067E5F5
:102610007DE0F8CF47E55DE064E67DE0F3CF42E89A
:102620005DE063E77DE0EECF43E75DE062E87DE0FB
:10263000E9CF40EA5DE061E97DE0E4CF41E95DE0BA
:1026400060EA7DE0DFCF48EE5BE061ED7BE0DACF72
:1026500041ED5BE068EE7BE0D5CF81E017C065E03F
:1026600082E010C068E086E00DC06EE089E00AC03C
:1026700064E18FE007C067E185E104C088E106C03E
:1026800062E289E10E94CB1205C083E20E944211FE
:1026900001C011E0812FDF91CF911F910895529ACF
:1026A0002BB12B7F3BB134604FB7F894FC01CB01C9
:1026B000880F991F680F791F6E0F7F1FE617F707A6
:1026C00089F0819198E03BB9000000C087FF2BB9E9
:1026D000880F000000C000C000C02BB900C09A9550
:1026E00091F7ECCF4FBF8FE594E00197F1F700C071
:1026F000000008950F931F93CF93DF93C42FD22F21
:10270000FC0182818823C9F04093BE020E94882484
:102710009093BD028093BC0280E28C0F883008F059
:1027200057C0C77081E001C0880FCA95EAF7DF91F2
:10273000CF911F910F910C94F2198091BE02481312
:1027400030C08091BC029091BD020E94A024883CC0
:10275000910538F510E21D0FCD17B9F080E28C0F0E
:10276000883040F4C77081E001C0880FCA95EAF74D
:102770000E94F919183028F581E09D2F977001C04B
:10278000880F9A95EAF70E94F219802F0E94E919A2
:102790001830F0F4D77081E001C0880FDA95EAF7BD
:1027A0000AC080E28C0F883098F4C77081E001C0C5
:1027B000880FCA95EAF7DF91CF911F910F910C9482
:1027C000F919802FDF91CF911F910F910C94E91986
:1027D000DF91CF911F910F9108950F939C01CB0131
:1027E000243F4CE5340731F188F4293DFCE53F07EF
:1027F000D9F02A3D4CE5340779F1283D3C45A9F54F
:1028000006E221EE41EE68ED7CE52BC0263FFCE5BB
:102810003F07E1F0A8F0273F3C4539F507E225EEF8
:1028200046EE67EF7CE51DC007E225EE45EE69ED5B
:102830007CE517C006E221EE40EE64EF7CE511C0B6
:1028400007E225EE44EE65EF7CE50BC006E221EEE3
:1028500042EE66EF7CE505C008E221E045EE6AED58
:102860007CE50E947A1380E008C0FC018281882305
:1028700019F01092BE0201C081E00F910895CF932C
:10288000DF93EC01FB018281882309F41FC1C23070
:10289000FCE5DF0708F41BC1C6319CE5D90738F019
:1028A0009E012B5F3C452930310508F010C10E9484
:1028B00019239093070480930604C031ECE5DE07EA
:1028C00009F4C3C008F041C0C8308CE5D80709F44A
:1028D0009AC0F0F4C430ECE5DE0709F487C068F470
:1028E000C2308CE5D80709F477C0C330DC4509F065
:1028F000E3C080910604826076C0C630ECE5DE0756
:1029000009F46EC008F07BC08091060488606BC03B
:10291000CC308CE5D80709F485C068F4CA30ECE502
:10292000DE0709F474C008F079C00E947F1C809112
:102930000604806858C0CE308CE5D80709F476C00C
:1029400008F07FC0809106048BC0CC3FECE5DE0729
:1029500009F44FC018F5C3318CE5D80709F47DC0E0
:1029600078F4C131ECE5DE0709F473C0C231DC450F
:1029700009F0A2C00E947F1C809106048F7733C0AB
:10298000C5318CE5D80709F472C008F486C0CB3F86
:10299000DC4509F091C0809107043EC0C115FDE5FA
:1029A000DF0709F45FC058F4CE3F9CE5D90709F46E
:1029B00044C008F43FC08091070482602DC0C2303B
:1029C000FDE5DF0709F475C008F45DC0C330DD45DF
:1029D00009F072C080E06EC080910604816003C07F
:1029E0008091060480618093060466C0809106048D
:1029F00011C0809107048260809307045DC08091BC
:102A000006048062F0CF809106048064ECCF809150
:102A1000060488608460E7CF8160EECF8091060471
:102A20008E7FE1CF809106048D7FDDCF80910604FB
:102A3000877FD9CF8091070418C0809107048D7FCC
:102A4000DBCF809106048F7ECECF809106048F7DF0
:102A5000CACF809106048F7BC6CF80910604877F02
:102A60008B7FC1CF809107048D7F8E7FC5CF8091F2
:102A7000060482FB222720F991E0922790FB82F93D
:102A800090FB83F9B0CF80910704982F90959170B7
:102A90008E7F892B90FB81F9AFCF0E947F1C8091A4
:102AA000060487FB222720F991E0922790FB87F903
:102AB0009ACF81E00E94AF23809106049091070491
:102AC0000E942A230E947F1C80E001C081E0DF91E8
:102AD000CF910895CF93DF9386319C4541F5EB016B
:102AE0000E944D22982F8A8120913001309131012E
:102AF000882379F09A7A81E009F480E08093BF021C
:102B0000911102C069E201C065E3C9010E94F62388
:102B10000AC08091BF02811102C069E201C065E371
:102B2000C9010E94F8230E949B2280E001C081E03D
:102B3000DF91CF91089562E070E080E291E00C9423
:102B4000701662E070E080E291E00C9479160E94C9
:102B5000AD10882361F08BEC92E00E94B31081E00D
:102B600090E00E945217892B11F40C94B010089534
:102B70008091CA02883039F460E08BEC92E00E94C8
:102B80008B111092CA020895CF93DF93D62FC72FCF
:102B90000E94A71580E090E00E945217892BF1F463
:102BA000ED2FFC2F80E090E0DC01AB53BD4F2C916A
:102BB0002193019685309105B9F70E94FB24DC0131
:102BC000CB010296A11DB11D8093C1029093C20258
:102BD000A093C302B093C40281E001C080E0DF9102
:102BE000CF910895CF93DF93D62FC72F0E94B815AA
:102BF0006091C1027091C2028091C3029091C4029F
:102C00000E94DE24ED2FFC2F80E090E02191DC017A
:102C1000AB53BD4F2C93019685309105B9F7DF91E9
:102C2000CF9108958EE1489B02C08150E1F7489B07
:102C3000FECF0895589880E28A95F1F7589A089542
:102C4000FC012AE02A95F1F790E020E080E031E0F5
:102C5000261779F040E14A95F1F7880F489B02C0AA
:102C60008160932700C0000040E14A95F1F72F5F93
:102C7000EFCF20E12A95F1F729B100C0000030E143
:102C80003A95F1F7217092272081920F9083089551
:102C9000EF92FF920F931F93CF93DF931F92CDB7C5
:102CA000DEB719828C017C01E60EF11C0E151F05A2
:102CB00059F00E94121668E0CE0101960E9420167B
:102CC000F80181938F01F2CF81E09981911180E029
:102CD0000F90DF91CF911F910F91FF90EF9008958A
:102CE0009093D5028093D4026093D302509A589A5D
:102CF00008959093D5028093D4026093D3025098A4
:102D0000589AE89AE9E6F0E080818C7F8083089504
:102D1000615091E001C0990F6A95EAF720E031E037
:102D2000992361F0492F482319F0589A232701C0AD
:102D3000589840E24A95F1F79695F2CF222311F088
:102D4000589A01C0589880E28A95F1F758980895EA
:102D5000FF920F931F93CF93DF93EC018C01060F2B
:102D6000111DC017D10741F0F9900E941A1668E0B2
:102D70008F2D0E948816F5CFDF91CF911F910F9173
:102D8000FF9008951F920F920FB60F9211240F9388
:102D90001F932F933F934F935F936F937F938F93E3
:102DA0009F93AF93BF93EF93FF93CF93DF931F92C4
:102DB000CDB7DEB719820E94121667E0CE010196E8
:102DC0000E942016382F369536953695932F969576
:102DD0009570232F2570920F292F23709695969525
:102DE0008770920F891348C08981811145C08091F5
:102DF000D302831708F440C080E18A95F1F7589A0E
:102E0000509AA2E0AA95F1F700C00091D402109167
:102E1000D502B8E03B9F000D111D11245898F80110
:102E20006581662321F0868197810E94A8160E9401
:102E30001A16F0E1FA95F1F758985098589A80E1EF
:102E40008A95F1F7D80112966C911297662369F072
:102E500013968D919C9114970E944816D801ED917C
:102E6000FC91811105C082E004C0D801ED91FC9174
:102E700088E080830E9412160F90DF91CF91FF911E
:102E8000EF91BF91AF919F918F917F916F915F91E2
:102E90004F913F912F911F910F910F900FBE0F9067
:102EA0001F9018950F931F93CF93DF932091D30218
:102EB00030E0281739070CF471C09C0193E0220F11
:102EC000331F9A95E1F7C091D402D091D502C20F79
:102ED000D31FF894509A589845E04A95F1F70000AE
:102EE000982F969595708570890F982F9370869579
:102EF0008695890F8901082B0E941A1684E08A950D
:102F0000F1F700C067E0802F0E94881640E14A95E3
:102F1000F1F75098589A489902C000C0FCCF87E05A
:102F200090E0489B0EC0019751F4509A589AE8815E
:102F3000F98181E08083789481E090E031C000C025
:102F4000F0CF6D81662381F08E819F810E944816AB
:102F500081110AC0509A589AE881F98182E08083F1
:102F6000789482E090E01CC00E94121680E28A955C
:102F7000F1F75898509A40E14A95F1F76A81662333
:102F800021F08B819C810E94A8160E941A16E8816C
:102F9000F9811082789480E090E002C084E090E0B3
:102FA000DF91CF911F910F9108959093DB02809351
:102FB000DA020895E091DA02F091DB02309721F015
:102FC0000190F081E02D099480E00895E091DA020B
:102FD000F091DB02309721F00280F381E02D09941B
:102FE0000895E091DA02F091DB02309739F022E0A7
:102FF000DC012C930480F581E02D09940895209143
:10300000D8023091D9022817390771F09093D9026C
:103010008093D802E091DA02F091DB02309721F040
:103020000680F781E02D099408952091D602309111
:10303000D7022817390771F09093D7028093D602F0
:10304000E091DA02F091DB02309721F00084F18503
:10305000E02D099408950E9494246093EB027093EC
:10306000EC028093ED029093EE026093E70270937E
:10307000E8028093E9029093EA02089585B7806898
:1030800085BF85B7806885BF08950C94FA070895B9
:103090000C9447180C9447180C944A180C94471831
:1030A0000C944E180C9447180E943E188EEF92E232
:1030B0000E9443250E9452180C9450180E947F24AD
:1030C0000E94D5240E9484060E945E250E94C011A1
:1030D0000C944C189F92AF92BF92CF92DF92EF92D6
:1030E000FF920F931F93CF93DF93CDB7DEB72A974D
:1030F0000FB6F894DEBF0FBECDBF0E9448180E94E5
:1031000047180E94310781110E942B188DEDA82EBF
:1031100082E0B82E00E010E0902E802F0E9454062E
:10312000D82EF501C1905F01C826B1F40F5F1F4F83
:103130000A30110589F78FEF89838A831B820E94E9
:1031400088248160782F9D838C8349815A816B818B
:103150008D810E940E192FC08091650381FD0E9410
:103160005A06E12CFF24F3948C2D8F21F1F00E945C
:103170004518882399F0EE829F82DF2081E009F4D0
:1031800080E088870E9488248160782F9A878987C9
:103190004E815F8168858A850E940E19F801E3528D
:1031A000FD4F8081F826F08206C0E394FF0CF6E024
:1031B000EF12DACFBBCF0E94F8110E94A9090E943A
:1031C000DA179091DC028917B9F00E94DA17809320
:1031D000DC022A960FB6F894DEBF0FBECDBFDF919A
:1031E000CF911F910F91FF90EF90DF90CF90BF9004
:1031F000AF909F900C943D042A960FB6F894DEBFD2
:103200000FBECDBFDF91CF911F910F91FF90EF9037
:10321000DF90CF90BF90AF909F900895DF92EF9294
:10322000FF920F931F93CF93DF93CDB7DEB72B970A
:103230000FB6F894DEBF0FBECDBFF42E052F162FAC
:10324000E72ED82E61110E946D22FE01319686E094
:10325000DF011D928A95E9F77E2D4F2D502F612FAA
:103260008D2D9E810E94381F2B960FB6F894DEBFDD
:103270000FBECDBFDF91CF911F910F91FF90EF90C7
:10328000DF900895FC01808191810E940E220895B3
:10329000CF93882309F450C0C82F8CEF8C0F813A4C
:1032A000D0F46C2F80913001909131010E94C023A5
:1032B000882349F06C2F80913001909131010E9458
:1032C000F8230E949B226C2F809130019091310154
:1032D0000E94F6230CC080E28C0F883058F4C7702F
:1032E00081E001C0880FCA95EAF70E945022CF9171
:1032F0000C949B22EBE5EC0FE33040F4F0E0E95254
:10330000FE4F808190E0CF910C94FF17E8E5EC0F21
:10331000E73150F4F0E0EE0FFF1FE755FE4F8081DC
:103320009181CF910C941518CD3E30F08C2F0E94D6
:10333000B908CF910C948B09CF910895882389F116
:103340009CEF980F913A40F4682F80913001909152
:1033500031010E94F8230DC090E2980F983058F484
:10336000877091E001C0990F8A95EAF7892F0E9432
:1033700056220C949B229BE5980F933020F480E01A
:1033800090E00C94FF1798E5980F973120F480E0B7
:1033900090E00C9415188D3E20F00E9414090C94B6
:1033A0008B0908951F93CF93DF93182FEB010E9491
:1033B0004819209741F08FE99FE00197F1F700C08D
:1033C00000002197F6CF812FDF91CF911F910C94B0
:1033D0009E19893319F060E070E002C060E570E08A
:1033E0000C94D219882321F00E9450220C949B2225
:1033F0000895882321F00E9456220C949B22089560
:10340000CF92DF92EF92FF920F931F93CF93DF93B0
:103410007C01062FC72FFC01D281158112951F70E8
:103420000E944622882399F0DD2389F08C2F807F2B
:10343000803421F080E2800F883048F082E00E94E2
:10344000E5220E94462291E0D82ED92601C0D12C37
:10345000CC2EC2948FE0C8228C2D90E0FC01E6595E
:10346000FF4F0C94A22C8C2F807FCF70882311F0FB
:10347000C295C07FDD2399F0CC2309F48DC180E291
:10348000800F883010F0011104C08C2F0E94502250
:1034900003C08C2F0E9460220E949B227DC1802F3E
:1034A0000E949E19CC2309F49CC180E2800F8830D1
:1034B00010F0011104C08C2F0E94562203C08C2FE3
:1034C0000E9466220E949B228CC18C2F807FCF702D
:1034D000803211F0C295C07F002319F00130C9F08D
:1034E00022C0DD2371F0112341F0113031F40E942C
:1034F00080228C2B0E94882274C10E9480228C2BF7
:103500001DC0112319F0113009F46BC10E949122E2
:1035100025C0DD2321F0163008F063C10EC0153040
:1035200008F05FC11BC0DD2361F0112331F0F7010A
:10353000858180FF31C18F7085838C2F0E94F219A5
:1035400050C1112359F0093309F037C1FFEF27EEBD
:1035500083E0F15020408040E1F72DC18C2F0E9484
:10356000F9193FC18C2F86958695837019F08130AB
:1035700061F037C1DD2321F0802F9C2F937002C0B2
:1035800080E090E00E94FF1734C1DD2321F0802FFE
:103590009C2F937002C080E090E00E94151829C112
:1035A000802FDD2319F00E94B90802C00E9414097F
:1035B0000E948B091EC18C2F837009F045C0D11168
:1035C00014C1402F429546954770440F440F602F19
:1035D0006F70862F90E0A0E0B0E0042E04C0880F4A
:1035E000991FAA1FBB1F0A94D2F704FF10C00FE057
:1035F00010E020E030E004C0000F111F221F331F35
:103600004A95D2F7009510952095309503C000E0BB
:1036100010E09801C695C695C370BC01CD01602B22
:10362000712B822B932BC23049F058F4C13019F022
:103630000E948920DAC00E947720D7C00E949B2078
:10364000D4C00E947520D1C0DD2319F08C2F817069
:1036500001C08695882309F4C8C0402F429546953D
:103660004770440F440F602F6F70862F90E0A0E0EA
:10367000B0E0042E04C0880F991FAA1FBB1F0A9434
:10368000D2F704FF10C00FE010E020E030E004C0EB
:10369000000F111F221F331F4A95D2F70095109576
:1036A0002095309503C000E010E09801C695C695BE
:1036B000C370BC01CD01602B712B822B932BC230C8
:1036C00049F058F4C13019F00E944E218EC00E947A
:1036D0003C218BC00E94602188C00E94AF2085C021
:1036E000CF70DD2339F08C2F0E94D520802F0E94CF
:1036F000F2197BC0802F0E94F9198C2F0E94F620AE
:1037000074C0023F01F128F4003F41F0013FA1F0F5
:103710003FC0033FF9F0043F39F13AC0DD2341F0E7
:10372000153008F05EC08C2F8F710E941B2159C08C
:10373000163008F056C0F7CFDD2339F08C2F8F718B
:103740000E94D5204EC0DD23C9F38C2F8F710E94BB
:10375000F62047C0DD2329F08C2F8F710E94C020F6
:1037600040C00E94BB203DC0DD2349F0CF718C2FAB
:103770000E94D52063E08C2F0E94D02232C081E0CD
:103780000E94E522123068F182E00E94E52229C001
:10379000DD2331F0112391F2802F0E94481921C0BE
:1037A000112399F2093349F49FEFE7EEF3E09150CA
:1037B000E040F040E1F700C00000802F0E949E1919
:1037C00010C04C2F4F70602FC7010E9446040E940A
:1037D000E61F0FC04C2F4F70602FC7010E94490495
:1037E00008C088EF8C0D843020F40E94DA170E9404
:1037F0003D04DD20C9F00E94422280FD15C0F70182
:1038000012820E943C220E94D520C7010E94351CD2
:103810000E943C22DF91CF911F910F91FF90EF907A
:10382000DF90CF900C94F620DF91CF911F910F91F4
:10383000FF90EF90DF90CF9008950F931F93CF9359
:10384000DF93EC01688179818A810E9419228C01C1
:103850000E9472210E946320B801CE010E94001ACA
:10386000DF91CF911F910F910895CF93DF93EC01DA
:10387000988189812B813C81232B31F08F3F31F45A
:1038800081E09F3F19F403C081E001C080E080FD2A
:1038900019C0CE010E94F30381110CC00E94462280
:1038A000882381F08A81882369F082E0DF91CF91BB
:1038B0000C94E522CE010E941D1CCE01DF91CF9118
:1038C0000C94CC03DF91CF91089580E090E00E94AA
:1038D000FF1780E090E00E9415180E946D220E9460
:1038E0007D220E949B220E94BC0A0C948B0980912D
:1038F0003001909131010E94FA230C94651C0E94C2
:103900005D220C94771CE92FE295EF704E2F50E06A
:10391000FA013297EE30F105B0F4E658FF4F0C94FF
:10392000A22C803F91F018F4883E68F40EC0843FCA
:1039300051F40BC0883E48F0813F29F406C093FB48
:10394000882780F9089580E0089581E008950E9415
:103950000E220E94831C0895CF93DF9300D000D0E5
:103960001F92CDB7DEB70F900F900F900F900F9072
:10397000DF91CF910895CF93DF9300D000D000D096
:10398000CDB7DEB726960FB6F894DEBF0FBECDBF1B
:10399000DF91CF9108951F93CF93DF93C091F002F1
:1039A00016E08091F102C81799F0D0E01C9FF00159
:1039B0001D9FF00D1124EE50FD4F40815181628119
:1039C0007381848195810E94BB1C2196C770E9CFC9
:1039D000DF91CF911F9108954091220350912303CD
:1039E0006091240370912503809126039091270311
:1039F0000C94BB1C0F931F93CF93DF9380912703ED
:103A000082958F7009F05DC080912403882309F4AA
:103A100058C08091F0021091F102609122037091E0
:103A20002303C0912503D091260391E06F3F09F055
:103A300090E0292F06E0811709F443C0209721F078
:103A40007F3F21F030E003C031E001C0322F90E031
:103A500030FD34C0089FF001099FF00D1124DF01F3
:103A6000AE50BD4F11963C911197371327C03C9132
:103A7000361324C012963C91129731111FC0139631
:103A80004D915C9114974C1B5D0B483C5105B0F473
:103A9000809127038F70806180932703E950FD4F49
:103AA00080818F708061808382E293E00E94351C68
:103AB000DF91CF911F910F910C94CB1C01968770D1
:103AC000BACFDF91CF911F910F9108959F92AF923E
:103AD000BF92CF92DF92EF92FF920F931F93CF93FB
:103AE000DF93CDB7DEB761970FB6F894DEBF0FBE98
:103AF000CDBF8C0185E0F801DE011D9601900D928D
:103B00008A95E1F7F80140815181E280909122038A
:103B1000609123032091250330912603211531055F
:103B200031F06F3F31F481E09F3F19F403C081E031
:103B300001C080E0F82FF1709F2E80FD46C1F80192
:103B4000A380B48082E2C82E83E0D82EF0902403B4
:103B5000F501E21BF30BFF2009F4DFC0809127037E
:103B6000E83CF10508F09BC0282F207F09F052C0E7
:103B7000561313C0491311C0FE2CE1100EC08F70F4
:103B80008061809327030E94EC1CC6010E94351CB3
:103B900080912703F801858358C1AB2831F05F3F3E
:103BA00031F481E04F3F19F403C081E001C080E0AF
:103BB00080FD03C081E08E2502C080E090E0F82FF8
:103BC000F170FF2E80FF1CC08091F0022091F10265
:103BD00036E0821709F417C190E0389FF001399F51
:103BE000F00D1124EE50FD4F6181561306C0608127
:103BF000461303C06281E61203C001968770E9CFC5
:103C0000FE2CEE2009F421C180912703816080936E
:103C100027035AC0561306C0491304C0E11002C05E
:103C2000F8019FC04D875E878D859E850E94A71CE9
:103C3000882379F1EE2069F120912703822F829564
:103C40008F7090E0029774F080912203909123038B
:103C500098878F831986BB86AA862C87CE01079604
:103C60000E94351C86E0F801A2E2B3E001900D92BB
:103C70008A95E1F70E94FA1C0E94EC1C0DC05617B1
:103C800029F14D875E878D859E850E94A71C811135
:103C90002CC0C8010E94351CFF24F394D6C0282FE5
:103CA000207F69F77A2DB98AA88A6E2D89890E94AA
:103CB000AC1C82E293E00E94351C86E0F601119272
:103CC0008A95E9F70E94EC1CF12CBFC04913D9CFAB
:103CD000E110D7CFF8018583C8010E94351C86E02A
:103CE000F60111928A95E9F7B0C0EE2091F2209189
:103CF0002703822F82958F7090E002970CF4B2CF49
:103D000080912203909123039A8389831B82BD8231
:103D1000AC822E83CE010196A3CFE83CF10508F0DA
:103D200047C0FE2CEE2009F4B4CF561330C049131F
:103D30002EC02091270320FD21C0822F82958F70F5
:103D4000482F50E041155105C9F0F80125834F3047
:103D5000510541F08F5F982F9295907F822F8F7041
:103D6000892B8583C8010E94351C86E0F801A2E2F8
:103D7000B3E001900D928A95E1F742C086E0F80128
:103D8000A2E2B3E001900D928A95E1F75EC04D8703
:103D90005E878D859E850E94A71C811163CF8091CF
:103DA0002703816080932703C8010E94351C4DC002
:103DB0007A2DB98AA88A6E2D89890E94AC1C86E06A
:103DC000F60111928A95E9F71BC0EE2009F461CF44
:103DD0004D875E878D859E850E94A71CF82E8823BF
:103DE00009F457CF86E0F801A2E2B3E001900D920A
:103DF0008A95E1F782E293E00E9442190E94FA1C40
:103E00000E94EC1C22C04D875E878D859E850E9496
:103E10000E22292F22952F70223028F49F7039F01E
:103E2000811105C00BC0243028F49F7049F4805ED6
:103E3000883020F0C8010E94351C9F2CF92C05C049
:103E4000F8019581907F99F7F9CF8F2D61960FB684
:103E5000F894DEBF0FBECDBFDF91CF911F910F91C0
:103E6000FF90EF90DF90CF90BF90AF909F9008951C
:103E70001F93CF93DF93CDB7DEB72C970FB6F8948F
:103E8000DEBF0FBECDBF4F83588769877A878B8788
:103E90009C87CE0107960E94661D8823D1F09F81E2
:103EA00088852A853B85232B31F08F3F31F481E0D3
:103EB0009F3F19F403C081E001C080E080FD47C04E
:103EC0004F81588569857A858B859C850E94BB1CAE
:103ED0003EC086E0FE013796DE01119601900D92FC
:103EE0008A95E1F7FF81E8856A857B856115710513
:103EF00031F0EF3F31F481E0FF3F19F403C081E07E
:103F000001C080E080FD23C02091F10230E0C901B2
:103F10000196877099274091F00250E08417950729
:103F2000F1F1F983EA837D836C8396E0929FD0015F
:103F3000939FB00D1124AE50BD4FFE0131960190FC
:103F40000D929A95E1F78093F1020E94CB1C16E046
:103F50008091F0029091F102891771F1189FC001D0
:103F600011248E509D4F0E94661D882329F1E091F7
:103F7000F0021E9FF0011124EE50FD4F408151814F
:103F800062817381848195810E94BB1C8091F002C3
:103F900090E00196877099278093F002D9CF0E9414
:103FA0007F1C1092F1021092F002E2E2F3E086E050
:103FB000DF011D928A95E9F72C960FB6F894DEBFC3
:103FC0000FBECDBFDF91CF911F910895EF92FF9269
:103FD0000F931F93CF93DF938C01892B09F46CC04F
:103FE000F12CEE24E394E8012196F80184918437C2
:103FF00040F4843008F051C0813081F0823019F1F2
:104000005BC0853709F444C0A8F19CE7980F90374E
:1040100008F052C08F770E949E1941C00E5F1F4F5B
:10402000FE01849190E2980F983050F48770FE2D35
:1040300001C0FF0F8A95EAF78F2F0E94702214C0EB
:104040000E9448192DC00E5F1F4FFE01849190E21F
:10405000980F983060F48770FE2D01C0FF0F8A958D
:10406000EAF78F2F0E9476220E949B2219C00E949D
:104070009E1916C00E5F1F4FFE01C491CC2381F024
:104080008FE99FE00197F1F700C00000C150F6CF23
:104090000E5F1F4FFE01F49003C00E9448198E016D
:1040A0008F2D882309F49FCFEFE9FFE03197F1F7D7
:1040B00000C000008150F5CFDF91CF911F910F918B
:1040C000FF90EF900895089508950C9464200C9447
:1040D00065200E946720609354037093550380937A
:1040E0005603909357030C94651C0C9469200F930E
:1040F0001F93009154031091550320915603309162
:104100005703602B712B822B932B1F910F910C94D3
:1041100069200F931F930091540310915503209130
:1041200056033091570360237123822393231F91F9
:104130000F910C9469200F931F93009154031091D9
:10414000550320915603309157036027712782272A
:1041500093271F910F910C9469200C9464200E9466
:10416000AD2060935003709351038093520390935A
:1041700053030C94651C60E070E0CB010C94AF20FD
:104180000F931F9341E050E060E070E08A019B01D3
:1041900004C0000F111F221F331F8A95D2F7C901D7
:1041A000B8011F910F910C94AF200F931F9341E022
:1041B00050E060E070E004C0440F551F661F771F99
:1041C0008A95D2F78091500390915103A0915203A8
:1041D000B09153038A019B01082B192B2A2B3B2BEF
:1041E000C901B8011F910F910C94AF200F931F9339
:1041F00041E050E060E070E004C0440F551F661FCE
:10420000771F8A95D2F7409550956095709580916B
:10421000500390915103A0915203B09153038A012E
:104220009B01082319232A233B23C901B8011F91AD
:104230000F910C94AF200F931F9341E050E060E08A
:1042400070E004C0440F551F661F771F8A95D2F790
:104250008091500390915103A0915203B091530368
:104260008A019B01082719272A273B27C901B80182
:104270001F910F910C94AF200F931F930091500347
:10428000109151032091520330915303602B712BF5
:10429000822B932B1F910F910C94AF200F931F93A0
:1042A0000091500310915103209152033091530318
:1042B00060237123822393231F910F910C94AF20CD
:1042C0000F931F93009150031091510320915203BB
:1042D0003091530360277127822793271F910F91F5
:1042E0000C94AF200895292F220F920F990F890F58
:1042F000E82FE695E695E695877051E001C0550FE9
:104300008A95EAF785E0E89FF0011124E85DFC4F0B
:1043100020E030E070E04081CB01022E02C0969593
:1043200087950A94E2F781708195842785238427F5
:1043300081932F5F3F4F2530310569F70895292F6D
:10434000220F920F990F890F682F669566956695D3
:10435000982F977085E0689FB001112440E050E0ED
:1043600080E0FB01E40FF51FE85DFC4F208130E0A9
:10437000092E02C0369527950A94E2F7217033275B
:10438000042E01C0220F0A94EAF7822B4F5F5F4F81
:104390004530510531F70895BF92CF92DF92EF92E9
:1043A000FF920F931F93CF93DF938C01C090500324
:1043B000D0905103E0905203F09053038091540346
:1043C00090915503A0915603B0915703C82AD92A5A
:1043D000EA2AFB2ACFE1D0E0D701C6010C2E04C0A7
:1043E000B695A795979587950A94D2F780FD04C056
:1043F000219790F7B12C07C0BC2EB8018C2F0E94DA
:1044000065040197A9F38B2DDF91CF911F910F9137
:10441000FF90EF90DF90CF90BF900895CF93DF9300
:10442000EC010E94CC21BE010E946504DF91CF9176
:1044300008951F93CF93DF93EB019091EF0299239F
:1044400021F0CB010E940E2213C0882349F0CB013A
:104450000E94CC21182F682FCE010E94732104C026
:10446000CB010E949F21182FBE01812F0E9465045D
:10447000DF91CF911F91089580915803859585957F
:1044800085950895809158038770089590915803F9
:10449000977081E009F480E00895809164030895A5
:1044A00090916403892B8093640308958095909183
:1044B000640389238093640308951092640308952C
:1044C00090916303892B8093630308958095909165
:1044D000630389238093630308951092630308950F
:1044E00090916203892B8093620308958095909147
:1044F00062038923809362030895109262030895F2
:1045000080915903089508950C9483220C94842279
:1045100090915903981721F0809359030C948622A7
:10452000089580915903882329F01092590380E05F
:104530000C9486220895E0913001F0913101809130
:1045400064038083E0913001F0913101908180918A
:104550006303892B8083E0913001F09131019081D8
:1045600080916203892B808380915903882381F095
:10457000E0913001F09131019081892B808380910D
:104580003001909131010E94B42381110E94912247
:1045900080913001909131010C94E6170C948322A4
:1045A00098E0899F90011124262B209358030E94A4
:1045B000D520809158038595859585950C94CE22BC
:1045C0001092580380E00C94CE22209158038095DD
:1045D000822380935803982F977079F430E0482F06
:1045E000082E000C550B2417350739F08595859555
:1045F00085950E94F6200C94E022089580E00895AD
:104600006FEF7FEF80E090E00C94742D80E090E0FD
:104610000E94502D21E08B3E9E4F09F020E0822F1A
:10462000089582E090E00C94422D83E090E00C9499
:10463000422DCF9384E090E00E94422DC82F81E26A
:1046400090E00E94422D2C2F30E0A901582BCA0186
:10465000CF910895CF93C92F682F84E090E00E94F6
:10466000562D6C2F81E290E0CF910C94562DAB012A
:10467000BC018FE090E00C94682DAB01BC0183E19C
:1046800090E00C94682D60E070E0CB010C943D2329
:1046900060E070E0CB010E9437230C9443236BEE63
:1046A0007EEF80E090E00E94742D60E082E090E078
:1046B0000E94562D60E083E090E00E94562D1092FB
:1046C000540310925503109256031092570360E062
:1046D00084E090E00E94562D60E081E290E00E942C
:1046E000562D60E085E090E00E94562D60E086E067
:1046F00090E00E94562D6FEF87E090E00E94562DCB
:1047000040E050E0BA0188E090E00E94682D60E04F
:104710008DE090E00E94562D40E050E0BA0188E123
:1047200090E00E94682D60E087E190E00E94562DA5
:1047300040E050E0BA018CE190E00E94682D60E01A
:1047400080E290E00E94562D40E050E0BA0188E1FE
:1047500090E00E94682D0C9448230C944F23682FFE
:104760008EE090E00C94562DFC01329697E080E0AC
:10477000915029F021912223D9F38F5FF9CF089529
:10478000662349F0FC01329608962191621729F0C0
:10479000E817F907D1F780E0089581E008959C01BA
:1047A000FC0132969FEF80E04191461789F09F3FD0
:1047B00019F4411101C0982F8F5F8630A9F79F3FF0
:1047C00039F0F901E90FF11D97FDFA95628308951B
:1047D00008959C012A5F3F4FFC014281461301C0AE
:1047E0001282019682179307B9F708950C94CF238C
:1047F0000C94E923029626E0FC0111922A95E9F730
:10480000089508950C9401240C940124CF930E94E0
:1048100004240E9431070E940224C0E08C2F0E94D1
:104820005406811104C0CF5FCA30C1F701C081E0D6
:10483000CF9108950C9401240C941A2480910C04B7
:10484000843049F10E941C2480E00E943D041092B3
:10485000660320E488E190E00FB6F894A895809371
:1048600060000FBE2093600083B7817F846083BFA8
:1048700083B7816083BF7894889583B78E7F83BF29
:104880000FB6F894A89580916000886180936000CD
:10489000109260000FBE08950C9401240E947F1CAA
:1048A0000E94DA170E943D040C944C241F920F9230
:1048B0000FB60F9211248F939F93AF93BF93809164
:1048C0006603811113C08091FE039091FF03A091B4
:1048D0000004B09101044196A11DB11D8093FE0317
:1048E0009093FF03A0930004B0930104BF91AF9194
:1048F0009F918F910F900FBE0F901F90189582E09F
:1049000084BD93E095BD9AEF97BD80936E000895A6
:104910002FB7F8948091FE039091FF03A0910004BB
:10492000B09101042FBF08952FB7F8946091FE0352
:104930007091FF0380910004909101042FBF0895AE
:104940009C014FB7F8948091FE039091FF03A091D2
:104950000004B09101044FBF821B930B089578941B
:104960001F920F920FB60F9211248F939F93AF93C4
:10497000BF938091FE039091FF03A0910004B0913A
:1049800001040196A11DB11D8093FE039093FF03C6
:10499000A0930004B0930104BF91AF919F918F91B8
:1049A0000F900FBE0F901F90189510920204109256
:1049B000030410920404109205040895CF92DF922C
:1049C000EF92FF926B017C010E94FA0781110EC0E9
:1049D0000E949424C61AD70AE80AF90AC09202046F
:1049E000D0920304E0920404F0920504FF90EF904B
:1049F000DF90CF9008950F931F930E94FA078823AA
:104A000021F01F910F910C9494240E949424009102
:104A10000204109103042091040430910504600FF6
:104A2000711F821F931F1F910F9108950E94FA0713
:104A300081110C9488240E94FB24CB01089581E00D
:104A40008093E00080E28093D8001092C9008FE14B
:104A50009EE40197F1F700C0000087E090EBDC01D5
:104A60008093150490931604A0931704B093180430
:104A70009CE088E10FB6F894A895809360000FBE83
:104A800090936000FFCF9093DB018093DA0108954B
:104A90000C9400230E9431078FE39CE90197F1F702
:104AA00000C000000E94310780E00E94540680FF91
:104AB00004C00E9448250C941F2508950E940623D7
:104AC000811102C00E94AD230E94112380936503CF
:104AD0000E94192390930704809306040E941523D3
:104AE000682F70E080E090E00E9475206091500394
:104AF0007091510380915203909153030C94AD2017
:104B000080916F030895CF93DF9300D01F92CDB7AC
:104B1000DEB790910C04943019F589837B836A8306
:104B200082E08093E9008FEF9091E800815095FD3D
:104B300006C095ED9A95F1F700008111F5CF8091AF
:104B4000E80085FF0DC040E050E063E070E0CE017A
:104B500001960E94A0278091E8008E778093E8005C
:104B60000F900F900F90DF91CF910895BC0184E0DA
:104B70000C948325BC0183E00C94832522E02093D0
:104B8000E9002FEF3091E800215035FD06C035EDEA
:104B90003A95F1F700002111F5CF2091E80025FFAB
:104BA0000BC040E050E066E070E00E94A0278091DA
:104BB000E8008E778093E8000895CF93DF9321E09B
:104BC0002093E9002FEF3091E800215035FD06C019
:104BD00035ED3A95F1F700002111F5CF2091E8006D
:104BE00025FF14C0EC0140E050E068E070E00E9456
:104BF000A0278091E8008E778093E80088E0FE018E
:104C0000A7E6B3E001900D928A95E1F7DF91CF918D
:104C1000089580910B04811109C00E9431290E94DE
:104C20008E298091E20084608093E20008951092C2
:104C30000B04089508950895089542E061EC81E021
:104C40000E94AA2842E261EC82E00C94AA2880919A
:104C50000E04833009F460C030F4813071F082308A
:104C600009F499C008958A3009F485C08B3009F49D
:104C70006BC0893009F0A7C020C080910D04813A33
:104C800009F0A1C08091E800877F8093E8008091BF
:104C9000110490911204892B21F468E087E693E0D7
:104CA00003C060E080E090E070E00E94EB2780911C
:104CB000E8008B778093E800089580910D0481329D
:104CC00009F081C08091110490911204029708F0BC
:104CD0007AC08091E800877F8093E8008091E800A7
:104CE00082FD05C080910C048111F8CF6CC0209129
:104CF000F3008091F20090E0922B029729F48091CA
:104D0000F1008B7F813021F48091F10080936F035B
:104D10008091E8008B7753C080910D04813A09F0AF
:104D200052C08091110490911204892B09F04BC05C
:104D30008091E800877F8093E8008091E80080FF01
:104D4000FCCF80913C0136C080910D048132D9F5B1
:104D50008091110490911204892BA9F58091E800AB
:104D6000877F8093E8000E94DF2880910F04809362
:104D70003C010C947F1C80910D04813221F58091BF
:104D8000E800877F8093E8000E94DF28809110046C
:104D900080937003089580910D04813AA1F480916D
:104DA000E800877F8093E8008091E80080FFFCCFD7
:104DB000809170038093F1008091E8008E7780935A
:104DC000E8000C94DF28089584B7877F84BF0FB66E
:104DD000F894A8958091600088618093600010929B
:104DE00060000FBE90E080E80FB6F89480936100F9
:104DF000909361000FBE0E9454180E9431290E94B6
:104E00008E298091E20084608093E20078940E9471
:104E1000232C0E945E1882E391E00E94D5178091B6
:104E20000C048530A9F480910C04853079F40E943B
:104E30001E2480910A048823B1F30E94062488234B
:104E400091F30E948A270E947F1CEDCF0E944E247E
:104E50000E946A180E9448180E944718E0CF0C94DC
:104E60003127292F332723303105C9F060F4213051
:104E7000310581F02230310509F044C08BE390E028
:104E800024E735E043C021323105E1F0223231051B
:104E900049F138C082E190E02FEA35E037C0992728
:104EA0008130910549F028F0029761F5EEE1F5E0D7
:104EB00005C0E0E7F5E002C0EAE4F5E0849190E0A7
:104EC0009F0124C06115710541F061307105D1F475
:104ED00089E090E02FE935E019C089E090E026E80C
:104EE00035E014C06115710541F06130710551F470
:104EF0008BE790E021EC35E009C080E490E02CE302
:104F000036E004C080E090E020E030E0FA01318338
:104F10002083089580E189BD82E189BD09B400FE46
:104F2000FDCF8091D8008F7D8093D8008091E000E4
:104F300082608093E0008091E00081FDFCCF0895C5
:104F4000CF92DF92EF92FF920F931F93CF93DF9355
:104F5000EC018B017A010E94FE28811133C0E1141B
:104F6000F10439F0F70180819181081B190BC80FFA
:104F7000D91FC12CD12C0115110519F18091E80020
:104F800085FD16C08091E8008E778093E800E114DB
:104F9000F10449F0F70180819181C80ED91ED182B8
:104FA000C08285E00FC00E94FE28882321F30AC03A
:104FB00089918093F10001501109FFEFCF1ADF0AA8
:104FC000DACF80E0DF91CF911F910F91FF90EF90AA
:104FD000DF90CF9008952091130430911404261788
:104FE000370748F06115710539F42091E8002E77F4
:104FF0002093E80001C0B901FC0120E061157105B2
:1050000079F180910C048823F1F18530F1F18091E0
:10501000E80083FD3CC08091E80082FD2EC08091B5
:10502000E80080FFEBCF2091F3008091F20090E048
:10503000922B6115710551F08830910538F421915A
:105040002093F100615071090196F3CF21E0089798
:1050500009F020E08091E8008E778093E800CECFC1
:105060002111CFCF0AC080910C04882361F08530D4
:1050700061F08091E80083FD0AC08091E80082FF22
:10508000F2CF80E0089582E0089583E0089581E002
:10509000089520911304309114042617370748F01F
:1050A0006115710539F42091E8002E772093E8000E
:1050B00001C0B901FC0120E06115710591F18091F9
:1050C0000C04882309F440C0853009F43FC0809166
:1050D000E80083FD3DC08091E80082FD2FC08091F3
:1050E000E80080FFE9CF2091F3008091F20090E08A
:1050F000922B6115710559F08830910540F4249187
:105100002093F1003196615071090196F2CF21E0B0
:10511000089709F020E08091E8008E778093E800FE
:10512000CBCF2111CCCF0AC080910C04882361F031
:10513000853061F08091E80083FD0AC08091E8002D
:1051400082FFF2CF80E0089582E0089583E0089521
:1051500081E00895982F973068F59093E9009817AB
:1051600039F07091EC002091ED005091F00003C0F7
:10517000242F762F50E021FD02C09F5FECCF3091AD
:10518000EB003E7F3093EB003091ED003D7F30939C
:10519000ED003091EB0031603093EB007093EC0048
:1051A0002093ED005093F0002091EE0027FDE5CF15
:1051B00080E008958F708093E90081E008958091E8
:1051C0000D0487FF11C08091E80082FD05C0809129
:1051D0000C048111F8CF11C08091E8008B770BC0CF
:1051E00080910C04882349F08091E80080FFF8CF7B
:1051F0008091E8008E778093E80008952091E40084
:105200003091E50095E64091EC00842F817040FFDD
:1052100023C08091E80080FD1DC080910C0488238C
:1052200099F0853099F08091EB0085FD11C0409197
:10523000E4005091E5002417350729F3915011F04F
:105240009A01E1CF84E0089582E0089583E0089513
:1052500081E0089580E008954091E80042FFDDCFAD
:1052600008950E949F290E94A729E0EEF0E0808126
:1052700081608083E8EDF0E080818F77808319BCC6
:10528000A7EDB0E08C918E7F8C9380818F7E8083A0
:1052900010920B0408950F931F93CF93DF930E94F6
:1052A0009F290E94A729C8EDD0E088818F77888345
:1052B00088818068888388818F7D888319BC10925B
:1052C0000C041092080410920A041092090400EED3
:1052D00010E0F80180818B7F8083888181608883E2
:1052E00042E060E080E00E94AA28E1EEF0E08081E8
:1052F0008E7F8083E2EEF0E0808181608083808118
:1053000088608083F80180818E7F808388818061BE
:105310008883DF91CF911F910F910895E8EDF0E020
:1053200080818F7E8083E7EDF0E0808181608083E3
:1053300084E082BF81E080930B040C944B29E8ED5C
:10534000F0E080818E7F80831092E20008951092B9
:10535000DA001092E10008951F920F920FB60F929B
:1053600011242F933F934F935F936F937F938F936A
:105370009F93AF93BF93EF93FF938091E10082FFE0
:105380000BC08091E20082FF07C08091E1008B7F1B
:105390008093E1000E94222C8091DA0080FF1FC0E0
:1053A0008091D80080FF1BC08091DA008E7F8093AF
:1053B000DA008091D90080FF0DC080E189BD82E1D3
:1053C00089BD09B400FEFDCF81E080930C040E94EA
:1053D000092605C019BC10920C040E941726809162
:1053E000E10080FF19C08091E20080FF15C080912C
:1053F000E2008E7F8093E2008091E20080618093E2
:10540000E2008091D80080628093D80019BC85E0CA
:1054100080930C040E941B268091E10084FF30C021
:105420008091E20084FF2CC080E189BD82E189BDCA
:1054300009B400FEFDCF8091D8008F7D8093D80005
:105440008091E1008F7E8093E1008091E2008F7E69
:105450008093E2008091E20081608093E20080917D
:105460000804882311F084E007C08091E30087FDE1
:1054700002C081E001C083E080930C040E941C26DE
:105480008091E10083FF29C08091E20083FF25C065
:105490008091E100877F8093E10082E080930C049B
:1054A000109208048091E1008E7F8093E10080914A
:1054B000E2008E7F8093E2008091E2008061809321
:1054C000E20042E060E080E00E94AA288091F000C3
:1054D00088608093F0000E941A26FF91EF91BF919F
:1054E000AF919F918F917F916F915F914F913F917C
:1054F0002F910F900FBE0F901F9018951F920F9233
:105500000FB60F9211242F933F934F935F936F9396
:105510007F938F939F93AF93BF93CF93DF93EF933B
:10552000FF93C091E900CF708091EC00D82FD1702B
:1055300080FDD0E81092E9008091F000877F809391
:10554000F00078940E94C22A1092E9008091F00045
:1055500088608093F000CD2BCF70C093E900FF915D
:10556000EF91DF91CF91BF91AF919F918F917F91FB
:105570006F915F914F913F912F910F900FBE0F90C0
:105580001F9018951F93CF93DF93CDB7DEB7AA97DF
:105590000FB6F894DEBF0FBECDBFEDE0F4E0809112
:1055A000F100819324E0E531F207C9F70E94272634
:1055B0008091E80083FF2EC180910D0490910E042C
:1055C000492F50E04A30510508F024C1FA01E8574C
:1055D000FF4F0C94A22C803821F0823809F01AC1B8
:1055E00008C08091090490910A04992389F082608F
:1055F0000FC0809111048F70873008F00BC1809329
:10560000E9008091EB0085FB882780F91092E90082
:105610009091E800977F9093E8008093F1001092BA
:10562000F100D1C0282F2D7F09F0F4C0882319F094
:10563000823061F0EFC080910F04813009F0EAC040
:10564000933009F080E080930A042EC080910F040B
:1056500081112AC0809111048F702FEF280F2630FE
:1056600008F0D8C08093E9002091EB0020FF1CC017
:10567000933021F48091EB00806214C09091EB0094
:1056800090619093EB0021E030E0A90102C0440F4B
:10569000551F8A95E2F74093EA001092EA00809144
:1056A000EB0088608093EB001092E9008091E800A5
:1056B000877F8093E8000E94DF28ACC08111AAC0D8
:1056C00010910F041F778091E3008078812B8093E5
:1056D000E3008091E800877F8093E8000E94DF2844
:1056E0008091E80080FFFCCF8091E3008068809388
:1056F000E300111102C082E001C083E080930C043A
:1057000089C08058823008F085C080910F04909144
:1057100010048C3D53E0950779F583E08A838AE293
:1057200089834FB7F894DE01139620E03EE051E202
:10573000E32FF0E050935700E49120FF03C0E2957F
:10574000EF703F5FEF708E2F90E0EA3010F0C79659
:1057500001C0C0968D939D932F5F243149F74FBFB1
:105760008091E800877F8093E8006AE270E0CE01D4
:1057700001960E94EB2716C06091110470911204EB
:10578000AE014F5F5F4F0E942F27BC01892B09F4A8
:1057900041C09091E800977F9093E80089819A81B9
:1057A0000E9449288091E8008B778093E80032C0FE
:1057B000803881F58091E800877F8093E8008091B0
:1057C00008048093F1008091E8008E7772CF8111F8
:1057D00021C080910F049091100499270297D4F46E
:1057E0008091E800877F8093E80080910F04809388
:1057F00008040E94DF2880910804811106C080916E
:10580000E30087FD02C081E001C084E080930C04C6
:105810000E941D268091E80083FF0AC08091E80065
:10582000877F8093E8008091EB0080628093EB009B
:10583000AA960FB6F894DEBF0FBECDBFDF91CF9111
:105840001F9108950895CF9380910C048823A1F0AF
:10585000C091E900CF709091EC00892F817090FD8C
:1058600080E8C82B1092E9008091E80083FD0E9437
:10587000C22ACF70C093E900CF910895991B79E0B7
:1058800004C0991F961708F0961B881F7A95C9F7D0
:105890008095089587FB082E062687FD819567FD74
:1058A00061950E943E2C0EF4919507FC8195089518
:1058B000AA1BBB1B51E107C0AA1FBB1FA617B70736
:1058C00010F0A61BB70B881F991F5A95A9F7809552
:1058D0009095BC01CD01089597FB072E16F4009416
:1058E00007D077FD09D00E94582C07FC05D03EF464
:1058F000909581959F4F0895709561957F4F08957C
:10590000A1E21A2EAA1BBB1BFD010DC0AA1FBB1FC3
:10591000EE1FFF1FA217B307E407F50720F0A21B35
:10592000B30BE40BF50B661F771F881F991F1A94A2
:1059300069F760957095809590959B01AC01BD01CC
:10594000CF010895EE0FFF1F0590F491E02D09940B
:105950000E94B02C332312F48A1B9B0B0C94C12C95
:10596000A29FB001B39FC001A39F700D811D1124A0
:10597000911DB29F700D811D1124911D08950E94EB
:10598000B02CB7FF0895821B930B08950E94B02C92
:10599000A59F900DB49F900DA49F800D911D112483
:1059A0000895B7FF0C94C62C0E94C62C821B930B43
:1059B00008958F929F92AF92BF92CF92DF92EF9213
:1059C000FF92CF93DF93EC01688179818A819B817B
:1059D000611571058105910521F464E279ED8BE58E
:1059E00097E02DE133EF41E050E00E948A2D49011C
:1059F0005A019B01AC01A7EAB1E40E94C62C6B01DD
:105A00007C01ACEEB4EFA50194010E94D42CDC0122
:105A1000CB018C0D9D1DAE1DBF1DB7FF03C00197AF
:105A2000A109B04888839983AA83BB839F77DF91BC
:105A3000CF91FF90EF90DF90CF90BF90AF909F906D
:105A40008F9008950E94D92C089580E091E00E94E3
:105A5000D92C0895A0E0B0E080930001909301015B
:105A6000A0930201B09303010895FC0141505040FE
:105A700030F001900616D1F73197CF0108958827AD
:105A800099270895F999FECF92BD81BDF89A99277B
:105A900080B50895A6E1B0E044E050E00C947C2D80
:105AA000A8E1B0E042E050E00C947C2D262FF9995B
:105AB000FECF92BD81BDF89A019700B4021639F06D
:105AC0001FBA20BD0FB6F894FA9AF99A0FBE08953E
:105AD0000396272F0E94572D0E94562D252F0E9496
